{
  "address": "0xa5Bf810E44c6F6F2cdD71A1F52C48D455c2e91af",
  "abi": [
    {
      "inputs": [
        {
          "internalType": "address payable",
          "name": "diceGameAddress",
          "type": "address"
        }
      ],
      "stateMutability": "nonpayable",
      "type": "constructor"
    },
    {
      "inputs": [
        {
          "internalType": "address",
          "name": "owner",
          "type": "address"
        }
      ],
      "name": "OwnableInvalidOwner",
      "type": "error"
    },
    {
      "inputs": [
        {
          "internalType": "address",
          "name": "account",
          "type": "address"
        }
      ],
      "name": "OwnableUnauthorizedAccount",
      "type": "error"
    },
    {
      "anonymous": false,
      "inputs": [
        {
          "indexed": true,
          "internalType": "address",
          "name": "previousOwner",
          "type": "address"
        },
        {
          "indexed": true,
          "internalType": "address",
          "name": "newOwner",
          "type": "address"
        }
      ],
      "name": "OwnershipTransferred",
      "type": "event"
    },
    {
      "inputs": [],
      "name": "diceGame",
      "outputs": [
        {
          "internalType": "contract DiceGame",
          "name": "",
          "type": "address"
        }
      ],
      "stateMutability": "view",
      "type": "function"
    },
    {
      "inputs": [],
      "name": "owner",
      "outputs": [
        {
          "internalType": "address",
          "name": "",
          "type": "address"
        }
      ],
      "stateMutability": "view",
      "type": "function"
    },
    {
      "inputs": [],
      "name": "renounceOwnership",
      "outputs": [],
      "stateMutability": "nonpayable",
      "type": "function"
    },
    {
      "inputs": [],
      "name": "riggedRoll",
      "outputs": [],
      "stateMutability": "nonpayable",
      "type": "function"
    },
    {
      "inputs": [
        {
          "internalType": "address",
          "name": "newOwner",
          "type": "address"
        }
      ],
      "name": "transferOwnership",
      "outputs": [],
      "stateMutability": "nonpayable",
      "type": "function"
    },
    {
      "inputs": [
        {
          "internalType": "address",
          "name": "_to",
          "type": "address"
        },
        {
          "internalType": "uint256",
          "name": "_amount",
          "type": "uint256"
        }
      ],
      "name": "withdraw",
      "outputs": [],
      "stateMutability": "nonpayable",
      "type": "function"
    },
    {
      "stateMutability": "payable",
      "type": "receive"
    }
  ],
  "transactionHash": "0xe0b7ded2522775ba1241dd578c86777ccf7244e2dfbf3216f779a02a2215072c",
  "args": [
    "0xa738B60C6B9F21BEC6E9F549D88d763C95CABFde"
  ],
  "numDeployments": 1,
  "solcInputHash": "52c184c230df1601d5ca23858c5e27a1",
  "bytecode": "0x608060405234801561001057600080fd5b506040516106a93803806106a983398101604081905261002f916100d4565b338061005557604051631e4fbdf760e01b81526000600482015260240160405180910390fd5b61005e81610084565b50600180546001600160a01b0319166001600160a01b0392909216919091179055610104565b600080546001600160a01b038381166001600160a01b0319831681178455604051919092169283917f8be0079c531659141344cd1fd0a4f28419497f9722a3daafe3b4186f6b6457e09190a35050565b6000602082840312156100e657600080fd5b81516001600160a01b03811681146100fd57600080fd5b9392505050565b610596806101136000396000f3fe6080604052600436106100595760003560e01c80636b5e97f814610065578063715018a61461007c5780638da5cb5b146100915780638e288fd1146100c7578063f2fde38b146100e7578063f3fef3a31461010757600080fd5b3661006057005b600080fd5b34801561007157600080fd5b5061007a610127565b005b34801561008857600080fd5b5061007a610325565b34801561009d57600080fd5b506000546001600160a01b03165b6040516001600160a01b03909116815260200160405180910390f35b3480156100d357600080fd5b506001546100ab906001600160a01b031681565b3480156100f357600080fd5b5061007a6101023660046104b2565b610339565b34801561011357600080fd5b5061007a6101223660046104d4565b610377565b66071afd498d000047101561017c5760405162461bcd60e51b8152602060048201526016602482015275139bdd08195b9bdd59da08115512081d1bc81c9bdb1b60521b60448201526064015b60405180910390fd5b6001546040805163057ff68760e51b815290516000926001600160a01b03169163affed0e09160048083019260209291908290030181865afa1580156101c6573d6000803e3d6000fd5b505050506040513d601f19601f820116820180604052508101906101ea91906104fe565b905060006101f9600143610517565b6001546040805192406020840181905260609290921b6bffffffffffffffffffffffff19169083015260548201849052915060009060740160408051601f1981840301815291905280516020909101209050600061025860108361053e565b9050600581116102d757600160009054906101000a90046001600160a01b03166001600160a01b0316637d789dee66071afd498d00006040518263ffffffff1660e01b81526004016000604051808303818588803b1580156102b957600080fd5b505af11580156102cd573d6000803e3d6000fd5b505050505061031f565b60405162461bcd60e51b815260206004820152601b60248201527f526573756c742063616e206e6f742077696e2c2043616e63656c2100000000006044820152606401610173565b50505050565b61032d610419565b6103376000610446565b565b610341610419565b6001600160a01b03811661036b57604051631e4fbdf760e01b815260006004820152602401610173565b61037481610446565b50565b61037f610419565b6000826001600160a01b03168260405160006040518083038185875af1925050503d80600081146103cc576040519150601f19603f3d011682016040523d82523d6000602084013e6103d1565b606091505b50509050806104145760405162461bcd60e51b815260206004820152600f60248201526e15da5d1a191c985dc819985a5b1959608a1b6044820152606401610173565b505050565b6000546001600160a01b031633146103375760405163118cdaa760e01b8152336004820152602401610173565b600080546001600160a01b038381166001600160a01b0319831681178455604051919092169283917f8be0079c531659141344cd1fd0a4f28419497f9722a3daafe3b4186f6b6457e09190a35050565b80356001600160a01b03811681146104ad57600080fd5b919050565b6000602082840312156104c457600080fd5b6104cd82610496565b9392505050565b600080604083850312156104e757600080fd5b6104f083610496565b946020939093013593505050565b60006020828403121561051057600080fd5b5051919050565b8181038181111561053857634e487b7160e01b600052601160045260246000fd5b92915050565b60008261055b57634e487b7160e01b600052601260045260246000fd5b50069056fea2646970667358221220ae04ef7061db8622dd5a2e833a5ae4c92b42e6335483e0c63236c669f7ec9d5864736f6c63430008140033",
  "devdoc": {
    "errors": {
      "OwnableInvalidOwner(address)": [
        {
          "details": "The owner is not a valid owner account. (eg. `address(0)`)"
        }
      ],
      "OwnableUnauthorizedAccount(address)": [
        {
          "details": "The caller account is not authorized to perform an operation."
        }
      ]
    },
    "kind": "dev",
    "methods": {
      "owner()": {
        "details": "Returns the address of the current owner."
      },
      "renounceOwnership()": {
        "details": "Leaves the contract without owner. It will not be possible to call `onlyOwner` functions. Can only be called by the current owner. NOTE: Renouncing ownership will leave the contract without an owner, thereby disabling any functionality that is only available to the owner."
      },
      "transferOwnership(address)": {
        "details": "Transfers ownership of the contract to a new account (`newOwner`). Can only be called by the current owner."
      }
    },
    "version": 1
  },
  "userdoc": {
    "kind": "user",
    "methods": {},
    "version": 1
  },
  "storageLayout": {
    "storage": [
      {
        "astId": 8,
        "contract": "contracts/RiggedRoll.sol:RiggedRoll",
        "label": "_owner",
        "offset": 0,
        "slot": "0",
        "type": "t_address"
      },
      {
        "astId": 351,
        "contract": "contracts/RiggedRoll.sol:RiggedRoll",
        "label": "diceGame",
        "offset": 0,
        "slot": "1",
        "type": "t_contract(DiceGame)341"
      }
    ],
    "types": {
      "t_address": {
        "encoding": "inplace",
        "label": "address",
        "numberOfBytes": "20"
      },
      "t_contract(DiceGame)341": {
        "encoding": "inplace",
        "label": "contract DiceGame",
        "numberOfBytes": "20"
      }
    }
  }
}